:100000000C9434000C9446000C9446000C9446006A
:100010000C9446000C9446000C9446000C94460048
:100020000C9446000C9446000C9446000C94460038
:100030000C9446000C9446000C9446000C94460028
:100040000C94C8000C9446000C9446000C94460096
:100050000C9446000C9446000C9446000C94460008
:100060000C9446000C94460011241FBECFEFD8E03C
:10007000DEBFCDBF21E0A0E0B1E001C01D92A930FC
:10008000B207E1F70E9412010C9464010C94000085
:1000900000E00AB900E00BB9209A2898089500E022
:1000A0000093C50007E60093C40008E10093C10077
:1000B00008950091C00005FF08C00091C0001FEB2B
:1000C00001230093C0002093C60008950091C00052
:1000D00007FF0AC02091C600289A34E643E357E39D
:1000E0006FE50E94750028980895A32FAA9551F0F6
:1000F000B42FBA95D9F3C52FCA95D9F3D62FDA956F
:10010000F1F7FACF089509B10C7F0695069509F429
:100110000895202F3DE04DE15DE167E20E9475000A
:1001200009B10C7F06950695D9F73DE04DE15DE1FB
:1001300067E20E94750020FF04C025E50E94590077
:100140001EC021FF04C024E40E94590018C022FFF1
:1001500004C022E50E94590012C023FF04C02CE411
:100160000E9459000CC024FF04C023E50E945900DE
:1001700006C025FF0CC02DE40E94590000C0289A3B
:1001800033E241E251E266E40E9475002898089546
:100190001F920F920FB60F9211242F933F938F93BC
:1001A0009F93AF93BF938091050190910601A09119
:1001B0000701B09108013091040123E0230F2D378E
:1001C00058F50196A11DB11D2093040180930501EE
:1001D00090930601A0930701B0930801809100015C
:1001E00090910101A0910201B09103010196A11D1E
:1001F000B11D8093000190930101A0930201B0937F
:100200000301BF91AF919F918F913F912F910F90DB
:100210000FBE0F901F90189526E8230F0296A11D80
:10022000B11DD2CF789484B5826084BD84B58160DD
:1002300084BD85B5826085BD85B5816085BD8091B1
:100240006E00816080936E00109281008091810029
:100250008260809381008091810081608093810021
:10026000809180008160809380008091B1008460E3
:100270008093B1008091B00081608093B000809144
:100280007A00846080937A0080917A008260809303
:100290007A0080917A00816080937A0080917A0060
:1002A000806880937A001092C1000E9448000E94EA
:1002B0004F00C0E0D0E00E9466000E9483002097BB
:0C02C000D1F30E940000F7CFF894FFCFAC
:00000001FF
