:100000000C9472000C9486000C9486000C9486006C
:100010000C9486000C9486000C9486000C94860048
:100020000C9486000C9486000C9486000C94860038
:100030000C9486000C9486000C9486000C94860028
:100040000C9486000C9486000C9486000C94860018
:100050000C9486000C9486000C9486000C941A0173
:100060000C9486000C9486000C9486000C948600F8
:100070000C9486000C9486000C9486000C948600E8
:100080000C9486000C9486000C9486000C948600D8
:100090000C9486000C9486000C9486000C948600C8
:1000A0000C9486000C9486000C9486000C948600B8
:1000B0000C9486000C9486000C9486000C948600A8
:1000C0000C9486000C9486000C9486000C94860098
:1000D0000C9486000C9486000C9486000C94860088
:1000E0000C94860011241FBECFEFD1E2DEBFCDBF3E
:1000F00000E00CBF22E0A0E0B2E001C01D92A930F8
:10010000B207E1F70E9464010C94E3010C94000033
:100110006B986C986D987398749875982498259836
:1001200026982C982D982E989D9AA598089500E0D1
:100130000093C50007E60093C40008E10093C100E6
:1001400008950091C00005FF08C00091C0001FEB9A
:1001500001230093C0002093C60008950091C000C1
:1001600007FF0AC02091C600A59A34E643E357E38F
:100170006FE50E94BD00A5980895A32FAA9551F0A0
:10018000B42FBA95D9F3C52FCA95D9F3D62FDA95DE
:10019000F1F7FACF08950CB1087306950695069508
:1001A00013B110771695012B09F40895202F3DE027
:1001B0004DE15DE167E20E94BD000CB10873069558
:1001C0000695069513B110771695012BB1F73DE012
:1001D0004DE15DE167E20E94BD0021FF04C025E51D
:1001E0000E94A1001EC022FF04C024E40E94A100BE
:1001F00018C020FF04C022E50E94A10012C023FF06
:1002000004C02CE40E94A1000CC024FF04C023E51C
:100210000E94A10006C025FF0CC02DE40E94A10091
:1002200000C0A59A33E241E251E266E40E94BD00BB
:10023000A59808951F920F920FB60F9211242F9335
:100240003F938F939F93AF93BF93809105029091BB
:100250000602A0910702B09108023091040223E047
:10026000230F2D3758F50196A11DB11D20930402CF
:100270008093050290930602A0930702B0930802B0
:100280008091000290910102A0910202B0910302BC
:100290000196A11DB11D8093000290930102A093CD
:1002A0000202B0930302BF91AF919F918F913F9152
:1002B0002F910F900FBE0F901F90189526E8230FD7
:1002C0000296A11DB11DD2CF789484B5826084BD01
:1002D00084B5816084BD85B5826085BD85B581604A
:1002E00085BD80916E00816080936E0010928100C8
:1002F0008091810082608093810080918100816083
:100300008093810080918000816080938000809143
:10031000B10084608093B1008091B00081608093CF
:10032000B000809191008260809391008091910053
:100330008160809391008091900081608093900013
:100340008091A10082608093A1008091A1008160D2
:100350008093A1008091A00081608093A000809193
:10036000210182608093210180912101816080932D
:1003700021018091200181608093200180917A0089
:10038000846080937A0080917A00826080937A0002
:1003900080917A00816080937A0080917A008068F1
:1003A00080937A001092C1000E9488000E949700FA
:1003B000C0E0D0E00E94AE000E94CB002097D1F3B5
:0A03C0000E940000F7CFF894FFCF71
:00000001FF
